:020000040800F2
:1000000000000220011D0008991C00089B1C00082C
:100010009D1C00089F1C0008A11C00080000000097
:10002000000000000000000000000000A31C000809
:10003000A51C000800000000A71C0008A91C00085F
:10004000511D0008511D0008511D0008511D0008D8
:10005000511D0008511D0008511D0008511D0008C8
:10006000511D0008511D0008511D0008511D0008B8
:10007000511D0008511D0008511D0008511D0008A8
:10008000511D0008511D0008511D0008511D000898
:10009000511D0008511D0008511D0008511D000888
:1000A000511D0008511D0008511D0008511D000878
:1000B000511D0008511D0008511D0008511D000868
:1000C000511D0008511D0008511D0008511D000858
:1000D000511D0008511D0008511D0008511D000848
:1000E000511D0008511D0008511D0008511D000838
:1000F000511D0008511D0008511D0008511D000828
:10010000511D0008511D0008511D0008511D000817
:10011000511D0008511D0008511D0008511D000807
:10012000511D0008511D0008511D0008511D0008F7
:10013000511D0008511D0008511D0008511D0008E7
:10014000511D0008511D0008511D0008511D0008D7
:10015000511D0008511D0008511D0008511D0008C7
:10016000511D0008511D0008511D0008511D0008B7
:10017000511D0008511D0008511D0008000000001D
:08018000511D0008511D00088B
:1001880010B5054C237833B9044B13B10448AFF3C9
:1001980000800123237010BD0C0000200000000027
:1001A8009C1D00080C4B43B10C480D4910B5AFF32A
:1001B80000800C48036823B910BD0A48036833B9A6
:1001C8007047094B002BF7D0BDE810401847064B85
:1001D800002BF5D0184700BF000000009C1D000848
:1001E800100000200C0000200000000053B94AB99C
:1001F800002908BF00281CBF4FF0FF314FF0FF3027
:1002080000F07AB9ADF1080C6DE904CE00F006F8FB
:10021800DDF804E0DDE9022304B070472DE9F0477A
:100228008C460D460446089E002B51D18A4217463B
:100238006DD9B2FA82FEBEF1000F0BD0CEF1200CC0
:1002480001FA0EF520FA0CFC02FA0EF74CEA050C3E
:1002580000FA0EF44FEA174A250CBCFBFAF81FFA0D
:1002680087F90AFB18CC45EA0C4508FB09F3AB42B1
:100278000AD9ED1908F1FF3280F02381AB4240F230
:100288002081A8F102083D44ED1AA4B2B5FBFAF0AA
:100298000AFB105544EA054400FB09F9A14509D9B0
:1002A800E41900F1FF3380F00A81A14540F207818B
:1002B80002383C44A4EB090440EA08400021002E1F
:1002C80061D024FA0EF4002334607360BDE8F0872F
:1002D8008B4207D9002E54D0002186E82100084619
:1002E800BDE8F087B3FA83F1002940F08E80AB4275
:1002F80002D3824200F2FA80841A65EB03050120DA
:10030800AC46002E3FD086E81010BDE8F08712B941
:100318000127B7FBF2F7B7FA87FEBEF1000F34D119
:10032800EB1B3A0C1FFA87FC0121B3FBF2F8250CF2
:1003380002FB183345EA03450CFB08F3AB4207D927
:10034800ED1908F1FF3002D2AB4200F2D1808046AD
:10035800ED1AA3B2B5FBF2F002FB105543EA0544CF
:100368000CFB00FCA44507D9E41900F1FF3302D2C5
:10037800A44500F2B8801846A4EB0C0440EA0840F3
:100388009DE731463046BDE8F087CEF1200405FAF6
:100398000EF307FA0EF720FA04F83A0C25FA04F4DB
:1003A80048EA0308B4FBF2F14FEA184502FB11448E
:1003B8001FFA87FC45EA044501FB0CF3AB4200FA3F
:1003C8000EF409D9ED1901F1FF3080F08A80AB42B3
:1003D80040F2878002393D44EB1A1FFA88F5B3FBD7
:1003E800F2F002FB103345EA034500FB0CF3AB4285
:1003F80007D9ED1900F1FF386FD2AB426DD9023839
:100408003D44EB1A40EA01418FE7C1F1200722FA87
:1004180007F88B4005FA01F448EA030320FA07FEBF
:100428004FEA134CFD404EEA040EB5FBFCF94FEAC7
:100438001E440CFB19551FFA83F844EA054509FBCD
:1004480008F4AC4202FA01F200FA01FA08D9ED18F0
:1004580009F1FF3043D2AC4241D9A9F102091D4448
:100468002D1B1FFA8EFEB5FBFCF00CFB10554EEA57
:10047800054400FB08F8A04507D9E41800F1FF354A
:1004880029D2A04527D902381C4440EA0940A4EBE8
:100498000804A0FB02894C45C6464D4615D312D028
:1004A80056B1BAEB0E0364EB050404FA07F7CB4028
:1004B8001F43CC40376074600021BDE8F0871846C0
:1004C800F8E69046E0E6C245EAD2B8EB020E69EBE0
:1004D80003050138E4E72846D7E7404691E7814617
:1004E800BEE7014678E702383C4445E7084608E796
:1004F800A8F102083D442BE7704700BF10B5044639
:100508000E4B18784FF47A73B3FBF0F30C4A10686B
:10051800B0FBF3F000F0BCFA68B90F2C01D9012048
:1005280010BD002221464FF0FF3000F07FFA034B48
:100538005C60002010BD012010BD00BF000000203D
:100548000800002008B50B4B1A6842F400721A60C4
:100558001A6842F480621A601A6842F480721A605B
:10056800032000F051FA0020FFF7C8FF01F0F0FA6D
:10057800002008BD003C0240034A1168034B1B7869
:100588000B441360704700BF2800002000000020C3
:10059800014B1868704700BF2800002038B5044692
:1005A800FFF7F6FF0546B4F1FF3F02D0044B1B7876
:1005B8001C44FFF7EDFF401B8442FAD838BD00BF4A
:1005C80000000020002800F0A18038B5044690F80B
:1005D8002030D3B12268136823F002031360FFF7B9
:1005E800D7FF054623685A6812F0020F10D0FFF7AC
:1005F800CFFF401B0A28F5D9636A43F400336362CE
:10060800052384F82030012038BD01F0EBFAE1E73A
:100618001A6842F001021A60FFF7BAFF054623681C
:100628005A6812F0010F0DD1FFF7B2FF401B0A28DC
:10063800F5D9636A43F400336362052384F82030F4
:10064800012038BD227E012A3DD01A6822F080029E
:100658001A60637E012B3BD02268136823F04003A5
:100668001360A37E012B39D02268136823F020037E
:100678001360E37E012B37D02268136843F0100320
:100688001360237F012B35D02268136823F00803F9
:100698001360637F012B33D02268136823F00403AF
:1006A80013602168A368E2681343226913436269EF
:1006B80013436268013A1343CB610020606201234F
:1006C80084F8203038BD1A6842F080021A60C0E70A
:1006D8002268136843F040031360C2E72268136876
:1006E80043F020031360C4E72268136823F0100363
:1006F8001360C6E72268136843F008031360C8E76D
:100708002268136843F004031360CAE701207047A6
:1007180090F82030DBB2012B0AD090F82030DBB201
:10072800022B05D0436A43F48023436201207047BB
:1007380070B4424BD3F8002242F00102C3F8002201
:10074800D3F8002222F47C52C3F80022D3F8002206
:10075800486A42EA0022C3F800224A69012000FAE6
:1007680002F2D3F81C42D0430440C3F81C42CB69C0
:10077800B3B9324BD3F80C420440C3F80C424C696D
:10078800CE688D8845EA0645483443F834504D69AB
:100798008E680C8844EA0644483503EBC5035C6060
:1007A800CB69012B1DD08B69002B32D1234CD4F897
:1007B80004320340C4F804320B698BBB1F4BD3F8D7
:1007C80014422040C3F814020B6A012B2FD01B4A95
:1007D800D2F8003223F00103C2F80032002070BCC6
:1007E8007047164BD3F80C421443C3F80C424C69BB
:1007F8000E688D8845EA0645483443F834504D69FB
:100808008E688C8944EA0644483503EBC5035C606E
:10081800C9E70A4CD4F804321343C4F80432CBE7CE
:100828000648D0F814321343C0F81432CCE7034B0F
:10083800D3F81C120A43C3F81C22C8E7006400401E
:1008480038B590F82030DBB2012B05D0436A43F469
:1008580000234362012038BD0446022380F820307B
:100868000268136823F001031360FFF791FE054641
:1008780023685B6813F0010F0DD0FFF789FE401B5A
:100888000A28F5D9636A43F400336362052384F8C0
:100898002030012038BD0020606238BD30B490F8A7
:1008A8002040E4B2012C0BD090F82040E4B2022C96
:1008B80006D0436A43F480234362012030BC70476A
:1008C80051B90468E46814F0030F07D1436A43F48C
:1008D800001343620120F1E701295DD0056801F1A9
:1008E8001B0424012C5904F004049460002C5ED1EC
:1008F800056801F11B0424012C59640D1460056876
:1009080001F11B0424012D59C5F34005D560056884
:1009180025446D6805F00F051561056825446D6867
:10092800C5F30725956105682C446468240C546157
:1009380004680A011444D4F8B8411C7004681444CB
:10094800D4F8B841240A5C7004681444D4F8B84157
:10095800240C9C7004681444D4F8B841240EDC704C
:1009680004681444D4F8BC411C7104681444D4F8D5
:10097800BC41240A5C7104681444D4F8BC41240CBA
:100988009C7104682244D2F8BC21120EDA71B1B10C
:1009980001291BD0002091E70468246914F0030F93
:1009A8009CD1436A43F400134362012086E705683B
:1009B80001F11B0424012C59E40854609FE70268E4
:1009C800D36843F02003D360002077E702681369F7
:1009D80043F020031361002070E790F82030DBB269
:1009E800012B06D090F82030DBB2022B01D000207A
:1009F800704721B10368186900F003007047036865
:100A0800D86800F003007047074AD36823F4E0630E
:100A18001B041B0C000200F4E060184340F0BF60A8
:100A280040F40030D060704700ED00E030B4164B61
:100A3800DB68C3F30223C3F10704042C28BF042492
:100A48001D1D062D17D9033B012505FA04F4013CA9
:100A58002140994005FA03F3013B1340194300284C
:100A68000BDB0901C9B200F1604000F5614080F874
:100A7800001330BC70470023E6E700F00F000901BF
:100A8800C9B2024B1954F4E700ED00E014ED00E0A0
:100A98000138B0F1807F0AD2064B5860F021064A2F
:100AA80082F823100020986007221A6070470120FE
:100AB800704700BF10E000E000ED00E0042805D01A
:100AC800054A136823F0040313607047024A136849
:100AD80043F004031360704710E000E0704708B566
:100AE800FFF7FCFF08BD0000F0B583B000244BE021
:100AF8004FEAD40E0EF1080E50F82E2004F0070627
:100B0800B6000F27B74022EA07020F6907FA06F670
:100B1800324340F82E2046E0072600E0002606FA79
:100B28000EF6324302335E4E46F823205D4B1A68B8
:100B3800EB4302EA03064F6817F4803F01D045EA09
:100B48000206584A1660526803EA02064F6817F40C
:100B5800003F01D045EA0206524A5660926803EA0D
:100B680002064F6817F4801F01D045EA02064D4A75
:100B78009660D26813404E6816F4001F01D045EA0B
:100B88000203484AD36001340F2C00F28680012307
:100B9800A3400A6803EA0205AB42F4D14A68022A74
:100BA800A6D0122AA4D006684FEA440E032202FAFD
:100BB8000EF2D24316404F6807F0030707FA0EF704
:100BC8003E4306604E68771E012F03D9112E01D0CF
:100BD800122E0FD186681640CF6807FA0EF73E43EB
:100BE8008660466826EA03034E68C6F30016A640E8
:100BF80033434360C3681A408B6803FA0EF31A4301
:100C0800C2604B6813F0805FBDD000230193264B70
:100C18005A6C42F480425A645B6C03F4804301933B
:100C2800019BA3089E1C1E4A52F8262004F00306C6
:100C38004FEA860E0F2606FA0EF622EA06021B4F28
:100C4800B8423FF46BAF1A4EB0421AD006F5806630
:100C5800B04218D006F58066B04216D006F5806618
:100C6800B04214D006F58066B04212D006F5806610
:100C7800B04210D006F58066B0423FF44DAF08266A
:100C88004DE701264BE7022649E7032647E70426F6
:100C980045E7052643E7062641E703B0F0BD00BF58
:100CA80000380140003C014000380240000002408A
:100CB8000004024012B909048161704781617047DC
:100CC8004369594041617047002800F0BB8170B505
:100CD80082B00446036813F0010F3BD0A74B9B6812
:100CE80003F00C03042B2CD0A44B9B6803F00C03DB
:100CF800082B21D06368B3F5803F4FD0B3F5A02F00
:100D080052D09E4B1A6822F480321A601A6822F474
:100D180080221A606368002B50D0FFF739FC054623
:100D2800964B1B6813F4003F14D1FFF731FC401BAE
:100D38006428F5D903208AE1904B5B6813F4800F8F
:100D4800D8D08E4B1B6813F4003F03D06368002B88
:100D580000F07A81236813F0020F55D0874B9B6807
:100D680013F00C0F3ED0854B9B6803F00C03082B47
:100D780033D0E368002B68D00122814B1A60FFF75B
:100D880007FC05467D4B1B6813F0020F54D1FFF793
:100D9800FFFB401B0228F5D9032058E1774A136866
:100DA80043F480331360B5E7744B1A6842F4802229
:100DB8001A601A6842F480321A60ABE7FFF7E8FB62
:100DC80005466E4B1B6813F4003FC3D0FFF7E0FBEA
:100DD800401B6428F5D9032039E1684B5B6813F49C
:100DE800800FC6D1654B1B6813F0020F04D0E3686F
:100DF800012B01D001202AE1604A136823F0F8038F
:100E0800216943EAC1031360236813F0080F40D037
:100E1800636963B301225B4B1A60FFF7B9FB0546B0
:100E2800564B5B6F13F0020F33D1FFF7B1FB401B3A
:100E38000228F5D903200AE1504A136823F0F80381
:100E4800216943EAC1031360DEE700224C4B1A60B4
:100E5800FFF79EFB0546494B1B6813F0020FD3D0E2
:100E6800FFF796FB401B0228F5D90320EFE000228C
:100E7800444B1A60FFF78CFB0546404B5B6F13F041
:100E8800020F06D0FFF784FB401B0228F5D9032088
:100E9800DDE0236813F0040F79D0384B1B6C13F096
:100EA800805F33D100230193344B1A6C42F0805297
:100EB8001A641B6C03F080530193019B0125324B8C
:100EC8001B6813F4807F23D0A368012B34D0052B33
:100ED80038D02A4B1A6F22F001021A671A6F22F0D3
:100EE80004021A67A368002B36D0FFF751FB0646A9
:100EF800224B1B6F13F0020F48D1FFF749FB801BF1
:100F080041F288339842F3D90320A0E00025D6E7C0
:100F18001D4A136843F480731360FFF739FB0646D4
:100F2800194B1B6813F4807FCED1FFF731FB801B70
:100F38000228F5D903208AE0104A136F43F0010311
:100F48001367CFE70D4B1A6F42F004021A671A6F46
:100F580042F001021A67C5E7FFF71AFB0646074B7E
:100F68001B6F13F0020F11D0FFF712FB801B41F229
:100F780088339842F3D9032069E000BF0038024063
:100F880000004742800E474200700040E5B9A3695F
:100F9800002B5BD0304A926802F00C02082A58D025
:100FA800022B17D000222D4B1A60FFF7F1FA0446E6
:100FB800294B1B6813F0007F42D0FFF7E9FA001BAA
:100FC8000228F5D9032042E0234A136C23F080530A
:100FD8001364DCE70022214B1A60FFF7D9FA0546B3
:100FE8001D4B1B6813F0007F06D0FFF7D1FA401B9A
:100FF8000228F5D903202AE0E369226A1343626ACA
:1010080043EA8213A26A5208013A43EA0243E26AB7
:1010180043EA0263104A53600122104B1A60FFF73B
:10102800B7FA04460C4B1B6813F0007F06D1FFF794
:10103800AFFA001B0228F5D9032008E0002006E0DB
:10104800002004E001207047012000E0002002B0E9
:1010580070BD0120FBE700BF003802406000474236
:10106800F8B5314B9B6803F00C03042B59D0082BBF
:1010780001D02E48F8BD2C4B5A6802F03F025B683D
:1010880013F4800F2AD0284B5B68C3F388131E46DD
:1010980000275C010025E41A65EB0705A90141EA70
:1010A8009461A001001B61EB0501CB0043EA50737A
:1010B800C400A01943EB07014B0243EAD053440292
:1010C800204619460023FFF791F8174B5B68C3F3D6
:1010D800014301335B00B0FBF3F0F8BD124B5B68D2
:1010E800C3F388131E4600275C010025E41A65EB4C
:1010F8000705A90141EA9461A001001B61EB050104
:10110800CB0043EA5073C400A01943EB07018B02DC
:1011180043EA90538402204619460023FFF766F8F5
:10112800D3E70348F8BD00BF003802400024F400AC
:1011380000127A00002800F09D8070B504464F4BDD
:101148001B6803F00F038B4209D2CBB24B4A1370D2
:10115800136803F00F03994201D0012070BD236882
:1011680013F0020F17D013F0040F04D0444A936809
:1011780043F4E0539360236813F0080F04D0404A07
:10118800936843F4604393603D4A936823F0F00307
:10119800A068034393600D46236813F0010F32D013
:1011A8006368012B21D09A1E012A25D9344A126876
:1011B80012F0020F60D032498A6822F0030213430A
:1011C8008B60FFF7E5F906462D4B9B6803F00C038F
:1011D8006268B3EB820F16D0FFF7DAF9801B41F291
:1011E80088339842F0D9032070BD254A126812F45A
:1011F800003FE0D1012070BD214A126812F0007F43
:10120800D9D1012070BD1D4B1B6803F00F039D420F
:1012180009D2EAB2194B1A701B6803F00F039D42FA
:1012280001D0012070BD236813F0040F06D0144AC2
:10123800936823F4E053E1680B439360236813F049
:10124800080F07D00E4A936823F46043216943EAE4
:10125800C1039360FFF704FF094B9B68C3F30313B3
:10126800084AD35CD840084B18600020FFF746F9BD
:10127800002070BD01207047012070BD003C024075
:1012880000380240B41D000808000020014B18680F
:10129800704700BF0800002008B5FFF7F7FF044BB0
:1012A8009B68C3F38223034AD35CD84008BD00BFC0
:1012B80000380240C41D000808B5FFF7E7FF044BDB
:1012C8009B68C3F34233034AD35CD84008BD00BFD0
:1012D80000380240C41D00082DE9F04704460268A2
:1012E800136923F44053C1680B4313610168CB6849
:1012F80023F4164323F00C038268006902436069F3
:101308000243E06902431343CB602268536923F424
:101318004073A1690B435361E369B3F5004F62D091
:10132800D4F80080BB4B984500F01B8103F580631F
:10133800984500F01681FFF7AFFF00EB800000EB47
:1013480080006568AD00B0FBF5F5B34FA7FB053528
:101358006D092E01FFF7A0FF00EB800000EB800075
:101368006568AD00B0FBF5FAFFF796FF00EB80006B
:1013780000EB80006568AD00B0FBF5F5A7FB05350F
:101388006D094FF0640909FB15A52D013235A7FB3E
:1013980005356D0905F0F0053544FFF77DFF00EBD5
:1013A800800000EB80006668B600B0FBF6F6FFF739
:1013B80073FF00EB800000EB800063689B00B0FBCC
:1013C800F3F0A7FB0030400909FB10694FEA09193F
:1013D80009F13209A7FB0937C7F343172F44C8F8A7
:1013E8000870BDE8F087D4F8008003F1804303F566
:1013F800104398455CD003F58063984558D0FFF7B3
:101408004BFF00EB800000EB800065686D00B0FBCF
:10141800F5F5814FA7FB05356D092E01FFF73CFF58
:1014280000EB800000EB800065686D00B0FBF5FA0A
:10143800FFF732FF00EB800000EB800065686D006D
:10144800B0FBF5F5A7FB05356D094FF0640909FBFD
:1014580015A5ED003235A7FB05356D096D0005F4BE
:10146800F8753544FFF718FF00EB800000EB8000AB
:1014780066687600B0FBF6F6FFF70EFF00EB80001B
:1014880000EB800063685B00B0FBF3F3A7FB03236A
:101498005B0909FB13694FEAC90909F13209A7FB7E
:1014A8000937C7F342172F44C8F80870BDE8F0871A
:1014B800FFF702FF00EB800000EB800065686D001D
:1014C800B0FBF5F5544FA7FB05356D092E01FFF765
:1014D800F3FE00EB800000EB800065686D00B0FB58
:1014E800F5FAFFF7E9FE00EB800000EB8000656885
:1014F8006D00B0FBF5F5A7FB05356D094FF06409E4
:1015080009FB15A5ED003235A7FB05356D096D0002
:1015180005F4F8753544FFF7CFFE00EB800000EBCB
:10152800800066687600B0FBF6F6FFF7C5FE00EBB4
:10153800800000EB800063685B00B0FBF3F3A7FB5F
:1015480003235B0909FB13694FEAC90909F1320949
:10155800A7FB0937C7F342172F44C8F80870BDE83E
:10156800F087FFF7A9FE00EB800000EB80006568BC
:10157800AD00B0FBF5F5284FA7FB05356D092E0129
:10158800FFF79AFE00EB800000EB80006568AD0075
:10159800B0FBF5FAFFF790FE00EB800000EB80004F
:1015A8006568AD00B0FBF5F5A7FB05356D094FF093
:1015B800640909FB15A52D013235A7FB05356D0911
:1015C80005F0F0053544FFF777FE00EB800000EBEF
:1015D80080006668B600B0FBF6F6FFF76DFE00EB1C
:1015E800800000EB800063689B00B0FBF3F3A7FB6F
:1015F80003235B0909FB13694FEA091909F1320949
:10160800A7FB0937C7F343172F44C8F80870BDE88C
:10161800F08700BF001001401F85EB512DE9F04114
:1016280005460F4616469846069C2B681B6837EAFF
:1016380003030CBF01230023B3421ED1B4F1FF3FC3
:10164800F3D02CB1FEF7A4FFA0EB08008442ECD243
:101658002A68D36823F4D073D3602A68536923F0C7
:1016680001035361202385F8393085F83A30002387
:1016780085F838300320BDE8F0810020BDE8F0810E
:1016880058B310B5044690F839300BB3242384F8C6
:1016980039302268D36823F40053D3602046FFF71B
:1016A8001BFE2268136923F490431361226853696F
:1016B80023F02A0353612268D36843F40053D360AC
:1016C8000020E063202384F8393084F83A3010BDD4
:1016D80080F8383000F0B0FAD8E7012070472DE9DB
:1016E800F04182B01E4690F83930DBB2202B04D08E
:1016F8000223184602B0BDE8F08104460D46904624
:10170800002955D0002A55D090F83830012B01D146
:101718000223EEE7012380F838300023C363212336
:1017280080F83930FEF734FF0746A4F82480A4F87F
:10173800268010E000963B46002280212046FFF7D5
:101748006DFF002838D122682B88C3F30803536043
:101758002369CBB90235E38C9BB2BBB1E38C9BB256
:10176800013B9BB2E384A368B3F5805FE2D00096A7
:101778003B46002280212046FFF750FFF0B923683E
:101788002A785A600135E6E70135E4E700963B46DA
:10179800002240212046FFF741FF034608B10323FA
:1017A800A7E7202284F83920002284F83820A0E70F
:1017B80001239EE701239CE703239AE7032398E785
:1017C80090F8393090F83A001843704770B58AB0ED
:1017D80000240094264B1A6B42F080021A631A6B9D
:1017E80002F080020092009A01941A6B42F0010202
:1017F8001A631A6B02F001020192019A02941A6BA1
:1018080042F008021A631A6B02F008020292029A66
:1018180003941A6B42F004021A631A6B02F0040272
:101828000392039A04941A6B42F002021A631B6B28
:1018380003F002030493049B0E4D22464FF4E0414B
:101848002846FFF737FA012605960694079405A956
:101858000948FFF749F94FF4704305930696079432
:10186800089405A92846FFF73FF90AB070BD00BFE4
:1018780000380240000C024000000240FEE7000071
:1018880008B50B480B4B03604FF4E133436000236A
:101898008360C36003610C2242618361C361FFF707
:1018A800EFFE00B908BDEA210348FFF7E7FF00BFD4
:1018B8002C000020004C0040CC1D000800B595B05D
:1018C80000220092304B196C41F080511964196C58
:1018D80001F08051009100990192196C41F000715A
:1018E80019641B6C03F000730193019B0292274B50
:1018F8001A6842F480421A601B6803F4804302931A
:10190800029B012308934FF48033099302230E931B
:101918004FF480020F92082210924FF4A87211928D
:1019280012930723139308A8FFF7CEF920BB0F23C0
:10193800039302230493002305934FF4A0530693C3
:101948004FF480530793052103A8FFF7F3FBB8B9B9
:10195800FFF79CFC0E4BA3FB00308009FFF798F8BB
:101968000420FFF7ABF8002211464FF0FF30FFF7D5
:101978005DF815B05DF804FBAD210648FFF77EFF62
:10198800B8210448FFF77AFF003802400070004091
:10199800D34D6210CC1D000808B54FF480410348B0
:1019A800FFF78EF90A20FEF7F9FDF6E7000C024072
:1019B80008B50D480D4B0360152343600023836071
:1019C800C3604FF4402202614FF4801242610376F3
:1019D800437683760122C27603774377FEF7F2FDDA
:1019E80000B908BDFFF7D8FF780000200064004068
:1019F80000B58BB001220792002306934FF40871BB
:101A080000910193029303930593049308920E2285
:101A180009921A4A02211161D360936069461848F5
:101A2800FEF776FE28B91648FEF70AFF58B1FFF709
:101A3800B3FFFFF7B1FF4FF400511248FFF740F929
:101A48000A20FEF7ABFD00210D48FEF7C6FF01286E
:101A5800F1D10D4B094A00210948FEF71FFF18B1C3
:101A680000200BB05DF804FB01224FF4004105484B
:101A7800FFF720F9C820FEF791FDF1E7A00000204C
:101A880078000020000C02406C00002008B5FEF72A
:101A980059FDFFF713FFFFF799FEFFF789FFFFF7DF
:101AA800EFFEFFF7A5FF0028FBD1264C01224FF4DB
:101AB80080512046FFF7FEF84FF47A70FEF76EFD6E
:101AC80000224FF480512046FFF7F4F84FF47A7063
:101AD800FEF764FD01224FF400512046FFF7EAF8B3
:101AE8004FF47A70FEF75AFD00224FF40051204659
:101AF800FFF7E0F84FF47A70FEF750FD1248FFF751
:101B08005FFE2028CDD14FF0FF330A220F490E483F
:101B1800FFF7E5FD0028C4D101224FF4004120461B
:101B2800FFF7C8F84FF47A70FEF738FD00224FF43B
:101B380000412046FFF7BEF84FF47A70FEF72EFDFD
:101B4800AFE700BF000C02402C0000206C00002012
:101B580010B582B000240094214B5A6C42F48042A4
:101B68005A645A6C02F480420092009A01941A6CEA
:101B780042F080521A641B6C03F080530193019B5E
:101B88000320FEF741FF224621466FF00B00FEF7C7
:101B98004DFF224621466FF00A00FEF747FF224616
:101BA80021466FF00900FEF741FF224621466FF0FB
:101BB8000400FEF73BFF224621466FF00300FEF7C4
:101BC80035FF224621466FF00100FEF72FFF22461F
:101BD80021464FF0FF30FEF729FF02B010BD00BFCD
:101BE800003802400268124B9A4200D0704700B594
:101BF80087B00021009103F5EA331A6C42F00072B5
:101C08001A641B6C03F000730093009B4FF440733D
:101C18000193022302930391032304930923059359
:101C280001A90448FEF760FF07B05DF804FB00BF98
:101C380000640040000402400268124B9A4200D03F
:101C4800704700B587B0002300930F4B1A6C42F41D
:101C580000221A641B6C03F400230093009B4FF4CA
:101C68004063019302230293012303930323049304
:101C78000823059301A90548FEF736FF07B05DF86C
:101C880004FB00BF004C004000380240000802403E
:101C98007047FEE7FEE7FEE7FEE7704770477047CC
:101CA80008B5FEF769FCFEF71AFF08BD0F49D1F821
:101CB800883043F47003C1F888300D4B1A6842F03D
:101CC80001021A60002098601A6822F0847222F4D7
:101CD80080321A60074A5A601A6822F480221A6011
:101CE800D8604FF000638B60704700BF00ED00E0E4
:101CF8000038024010300024DFF834D0002103E01F
:101D08000C4B5B58435004310B480C4B42189A4219
:101D1800F6D30B4A02E0002342F8043B094B9A42EF
:101D2800F9D3FFF7C3FF00F011F8FFF7AFFE7047D4
:101D380000000220EC1D0008000000200C0000201C
:101D48000C000020BC000020FEE7000070B50D4E1E
:101D58000D4CA41BA4100025A54209D10B4E0C4C18
:101D680000F018F8A41BA4100025A54205D170BDE9
:101D780056F8253098470135EEE756F8253098474C
:101D88000135F2E7E41D0008E41D0008E41D000821
:101D9800E81D0008F8B500BFF8BC08BC9E467047AF
:0C1DA800F8B500BFF8BC08BC9E467047B0
:101DB40000000000000000000102030406070809F7
:101DC40000000000010203042E2E2F5372632F6DB6
:081DD40061696E2E630000003E
:081DDC0048E4FF7F0100000054
:041DE400AD01000845
:041DE8008901000865
:0C1DEC0001000000100000000024F400C2
:0400000508001D01D1
:00000001FF
